:020000040800F2
:10000000E00400203D4C0008194C00081B4C00087F
:1000100000000000000000000000000000000000E0
:100020000000000000000000000000001D4C00085F
:100030001F4C000800000000214C0008234C000861
:100040008B3D0008FF3D0008B34A0008F74B00084D
:10005000034C00082B4C0008594C00085B4C00086E
:100060005D4C00085F4C0008614C0008634C0008C0
:10007000654C0008674C000800000000694C00084F
:10008000000000006B4C00080000000000000000B1
:100090006D4C0008000000006F4C0008714C000817
:1000A000734C0008754C0008774C0008794C000828
:1000B0007B4C00087D4C00087F4C0008814C0008F8
:1000C000FFFFFFFFFFFFFFFFFFFFFFFFFFFFFFFF40
:1000D000FFFFFFFFFFFFFFFFFFFFFFFFFFFFFFFF30
:1000E000FFFFFFFFFFFFFFFFFFFFFFFFFFFFFFFF20
:1000F000FFFFFFFFFFFFFFFFFFFFFFFFFFFFFFFF10
:10010000FFFFFFFFFFFFFFFFFFFFFFFFFFFFFFFFFF
:10011000FFFFFFFFFFFFFFFFFFFFFFFFFFFFFFFFEF
:10012000F0FF0003FFF0F00003FFF0FF0003FFFF0C
:10013000FFFFFFFFFFFFFFFFFFFFFFFFFFFFFFFFCF
:10014000FFFFFFFFFFFFFFFFFFFFFFFFFFFFFFFFBF
:10015000FFFFFFFFFFFFFFFFFFFFFFFFFFFFFC0FA2
:10016000FFFFFF000FFFFFFFFC0FFFFFFFFFFFFF81
:10017000FFFFFFFFFFFFFFFC0FFFFFFF000FFFFF71
:10018000FFFC0FFFFFFFFFFFFFFFFFFFFFFFFFFF72
:10019000FFFFFFFFFFFFFFFFFFFFFFFFFFFFC3C3E7
:1001A000FFFFFFC3C3FFFF00000000FF00000000CF
:1001B000FFFFC3C3FFFFFFC3C3FFFF00000000FF3B
:1001C00000000000FFFFC3C3FFFFFFC3C3FFFFFF2B
:1001D000FFFFFFFFFFFFFFFFFFFFFFFFFFFFFFFF2F
:1001E000FFFFFFFFFFFFFFFFFC03C0FFFFFC03005B
:1001F0003FFFFC3F0F0FFF003F0F00FF003F0F00CE
:10020000FFFC3C3F0FFFFF003C0FFFFFC0FC0FFF58
:10021000FFFFFFFFFFFFFFFFFFFFFFFFFFFFFFFFEE
:10022000FFFFFFFFFFFFFFFFFFFFF0FC0FFFFFF0EF
:10023000F3F3FFFFFC33F3FFFFFC33F3FFFC0F3C52
:100240000FFFF3F30FFFFFF3F30FFFFFF3F3C3FF12
:10025000FFFC0FC3FFFFFFFFFFFFFFFFFFFFFFFFDD
:10026000FFFFFFFFFFFFFFFFFFFFFFFFFFFFFFFF9E
:10027000FFFFFFFFFC03FFFFFFFC00C0FFFFF0F0EC
:1002800000FFFFF0F03C3FFFF0C0FC3FFFF003FC3D
:100290003FFFFC03FC3FFFF0C0FC3FFFF0F0FC3FE2
:1002A000FFFFFFFFFFFFFFFFFFFFFFFFFFFFFFFF5E
:1002B000FFFFFFFFFFFFFFFFFFFFFFFFFFFFFFFF4E
:1002C000FFFFFFFFFFFFFFFFFFFFFFFC0FFFFFFF31
:1002D000000FFFFFFFFC0FFFFFFFFFFFFFFFFFFF10
:1002E000FFFFFFFFFFFFFFFFFFFFFFFFFFFFFFFF1E
:1002F000FFFFFFFFFFFFFFFFFFFFFFFFFFFFFFFF0E
:10030000FFFFFFFFFFFFFFFFFFFFFFFFFFFFFFFFFD
:10031000000FFFFFC000003FFC00FFF003FC3FFFA9
:10032000FFC3FFFFFFFFFFFFFFFFFFFFFFFFFFFF19
:10033000FFFFFFFFFFFFFFFFFFFFFFFFFFFFFFFFCD
:10034000FFFFFFFFFFFFFFFFFFFFFC3FFFFFC3FCBF
:1003500000FFF003FFC000003FFFFF000FFFFFFFA3
:10036000FFFFFFFFFFFFFFFFFFFFFFFFFFFFFFFF9D
:10037000FFFFFFFFFFFFFFFFFFFFFFFFFFFFFFFF8D
:10038000FFFFFFFFFFFFFFFFFFFFFFFFFFFFF0FF8C
:10039000FFFFF0F0FFFFFFF003FFFFFFFC0003FF94
:1003A000FFFC0003FFFFF003FFFFFFF0F0FFFFFF84
:1003B000FFF0FFFFFFFFFFFFFFFFFFFFFFFFFFFF5C
:1003C000FFFFFFFFFFFFFFFFFFFFFFFFFFFFFC3F00
:1003D000FFFFFFFC3FFFFFFFFC3FFFFFFFFC3FFF76
:1003E000FFFC00003FFFFC00003FFFFFFC3FFFFF62
:1003F000FFFC3FFFFFFFFC3FFFFFFFFC3FFFFFFF56
:10040000FFFFFFFFFFFFFFFFFFFFFFFFFFFFFFFFFC
:10041000FFFFFFFFFFFFFFFFFFFFFFFFFC0FFFFFDF
:10042000FFFF003FFFFFFFF03FFFFFFFFF3FFFFF2A
:10043000FFFFFFFFFFFFFFFFFFFFFFFFFFFFFFFFCC
:10044000FFFFFFFFFFFFFFFFFFFFFFFFFFFFFFFFBC
:10045000FFFFFFFFFFFFFFFFFFFFFC3FFFFFFFFC72
:100460003FFFFFFFFC3FFFFFFFFC3FFFFFFFFC3FA5
:10047000FFFFFFFC3FFFFFFFFC3FFFFFFFFC3FFFD5
:10048000FFFFFC3FFFFFFFFFFFFFFFFFFFFFFFFF3F
:10049000FFFFFFFFFFFFFFFFFFFFFFFFFFFFFFFF6C
:1004A000FFFFFFFFFFFFFFFFFFFFFFFFFFFFFFFF5C
:1004B000FFFFFFF03FFFFFFFF03FFFFFFFF03FFFB9
:1004C000FFFFFFFFFFFFFFFFFFFFFFFFFFFFFFFF3C
:1004D000FFFFFFFFFFFFFFFFFFFFFFFFFFFFFFFF2C
:1004E000FFFFFFFFFFFFFFFFFFFF0FFFFFFFFF000B
:1004F0003FFFFFFFF003FFFFFFFFC03FFFFFFFFCD9
:1005000003FFFFFFFFC00FFFFFFFFC00FFFFFFFF28
:10051000F0FFFFFFFFFFFFFFFFFFFFFFFFFFFFFFFA
:10052000FFFFFFFFFFFFFFFFFFFFFFFFC000FFFF19
:10053000FC00000FFFF03FFF03FFF0FFFFC3FFF0E1
:10054000FFFFC3FFF0FFFFC3FFF03FFF03FFFC000F
:10055000000FFFFFC000FFFFFFFFFFFFFFFFFFFFD8
:10056000FFFFFFFFFFFFFFFFFFFFFFFFFFFFFFFF9B
:10057000FFFFFFFFFFFFF0FFFF0FFFF0FFFF0FFF89
:10058000F0FFFF0FFFF0000003FFF0000003FFF09B
:10059000FFFFFFFFF0FFFFFFFFF0FFFFFFFFFFFF89
:1005A000FFFFFFFFFFFFFFFFFFFFFFFFFFFFFFFF5B
:1005B000FFFFFFFFFFFFFFF0FFFC3FFFF03FFC0FDF
:1005C000FFF00FFF03FFF0C3FFC3FFF0F0FFC3FF17
:1005D000F0FC3FC3FFF0FF0F03FFF0FFC00FFFF081
:1005E000FFF03FFFFFFFFFFFFFFFFFFFFFFFFFFFEA
:1005F000FFFFFFFFFFFFFFFFFC3FFFFFFFF03FFF9D
:100600000FFFF0FFFF0FFFF0FFFFC3FFF0FF0FC36F
:10061000FFF0FF0FC3FFF0FF0FC3FFF03C0303FF2A
:10062000FC00000FFFFF00F03FFFFFFFFFFFFFFF99
:10063000FFFFFFFFFFFFFFFFFFFFFFFFFFFFFFFFCA
:10064000FFFFFFFFC0FFFFFFFFC03FFFFFFFC30330
:10065000FFFFFFC3C0FFFFF0C3FC0FFFF0C3FF03AA
:10066000FFF0000003FFF0000003FFF0C3FFFFFFF7
:10067000FFFFFFFFFFFFFFFFFFFFFFFFFFFFFFFF8A
:10068000FFFFFFFFFFFFFFFFFFFC3FFFFFFFF03F0C
:100690000003FFF0FF0003FFF0FFC3C3FFF0FFC341
:1006A000C3FFF0FFC3C3FFF03F03C3FFFC000FC352
:1006B000FFFF003FFFFFFFFFFFFFFFFFFFFFFFFF09
:1006C000FFFFFFFFFFFFFFFFFFFFFFFFFFFFFFFF3A
:1006D000C003FFFFFC00003FFFFC3C300FFFF0FFBA
:1006E0000F0FFFF0FF0F03FFF0FF0FC3FFF03C0FF2
:1006F000C3FFFC003FC3FFFF00FFC3FFFFFFFFFF7F
:10070000FFFFFFFFFFFFFFFFFFFFFFFFFFFFFFFFF9
:10071000FFFFFFFFFFFFFFFF03FFFFFFFF03FFFFE1
:10072000FFFFC3FFFFFFFFC3FFF03FFFC3FFF0006A
:10073000FFC3FFFFC003C3FFFFFC0003FFFFFFFC7D
:1007400003FFFFFFFFFFFFFFFFFFFFFFFFFFFFFFB5
:10075000FFFFFFFFFFFFFFFFFFFFFFFF00F03FFF77
:10076000FC00000FFFF03C0303FFF0FF0FC3FFF09E
:10077000FF0FC3FFF0FF0FC3FFF03C0303FFFC00BC
:10078000000FFFFF00F03FFFFFFFFFFFFFFFFFFF36
:10079000FFFFFFFFFFFFFFFFFFFFFFFFFFFFFFFF69
:1007A000FFF0FFC03FFFF0FF000FFFF0FC0F03FF63
:1007B000F0FC3FC3FFF03C3FC3FFFC3C3FC3FFFCEA
:1007C000030F0FFFFF00000FFFFFF000FFFFFFFF11
:1007D000FFFFFFFFFFFFFFFFFFFFFFFFFFFFFFFF29
:1007E000FFFFFFFFFFFFFFFFFFFFFFFFFFFFFFFF19
:1007F000FFFFFFFFFFFFFFFFFFFFFFF03F03FFFFD4
:10080000F03F03FFFFF03F03FFFFFFFFFFFFFFFF8E
:10081000FFFFFFFFFFFFFFFFFFFFFFFFFFFFFFFFE8
:10082000FFFFFFFFFFFFFFFFFFFFFFFFFFFFFFFFD8
:10083000FFFFFFFFFFFFFFFFFFFFFFF03FFFFFFF97
:10084000FC03FFFFFFFFC3F03FFFFFF3F03FFFFF9D
:10085000FFF03FFFFFFFFFFFFFFFFFFFFFFFFFFF77
:10086000FFFFFFFFFFFFFFFFFFFFFFFFFFFFFFFC9B
:10087000FFFFFFFFFCFFFFFFFFF03FFFFFFFF03F29
:10088000FFFFFFC30FFFFFFF0FC3FFFFFF0FC3FFFC
:10089000FFFC3FF0FFFFFC3FF0FFFFF0FFFC3FFFDE
:1008A000F0FFFC3FFFFFFFFFFFFFFFFFFFFFFFFF2A
:1008B000FFFFFFFFFFC3C3FFFFFFC3C3FFFFFFC374
:1008C000C3FFFFFFC3C3FFFFFFC3C3FFFFFFC3C3DC
:1008D000FFFFFFC3C3FFFFFFC3C3FFFFFFC3C3FF90
:1008E000FFFFC3C3FFFFFFC3C3FFFFFFFFFFFFFF08
:1008F000FFFFFFFFFFFFFFFFFFFFFFFFFFFFFFF017
:10090000FFFC3FFFF0FFFC3FFFFC3FF0FFFFFC3F21
:10091000F0FFFFFF0FC3FFFFFF0FC3FFFFFFC30F7A
:10092000FFFFFFF03FFFFFFFF03FFFFFFFFCFFFF78
:10093000FFFFFCFFFFFFFFFFFFFFFFFFFFFFFFFFCA
:10094000FFFFFFFFFFFFFFFFFFFFFFFFF03FFFFF86
:10095000FFF00FFFF0FFFF0FFFF0F0FF0FFFF0F0D1
:100960003F0FFFFFFC3F0FFFFFFF003FFFFFFFC0F8
:10097000FFFFFFFFFFFFFFFFFFFFFFFFFFFFFFFF87
:10098000FFFFFFFFFFFFFFFFFFFFFFFFFFFFFFFF77
:10099000FF0000FFFFF0FFFF0FFFCFFFFFCFFFCFF4
:1009A000F03FF3FFCFCFCFF3FFCFCFCFC3FFF3C0E5
:1009B000003FFFFFFFFFFFFFFFFFFFFFFFFFFFFF06
:1009C000FFFFFFFFFFFFFFFFFFFFFFFFF0FFFFFF46
:1009D000FFF03FFFFFFFF003FF0FFFF0C03F0FFFEF
:1009E000FFC0030FFFFFC3C00FFFFFC3FC0FFFFFDC
:1009F000C3000FFFF0C003FFFFF000FFFFFFF03F59
:100A0000FFFFFFF0FFFFFFFFFFFFFFFFFFFFFFFF05
:100A1000FFFFFFFFFFFFFFF0FFFF0FFFF000000FE2
:100A2000FFF000000FFFF0FC3F0FFFF0FC3F0FFF57
:100A3000F0FC3F0FFFF0FC0F0FFFF0F0003FFFF066
:100A400000C0FFFFFC03FFFFFFFFFFFFFFFFFFFFF3
:100A5000FFFFFFFFFFFFFFFFFFFFFFFFFFFFC003E1
:100A6000FFFFFF0000FFFFFC0FF03FFFF03FFC0F18
:100A7000FFF0FFFF0FFFF0FFFF0FFFF0FFFF0FFF83
:100A8000F03FFC3FFFFC0FF00FFFFF0FF00FFFFFE9
:100A9000FFFFFFFFFFFFFFFFFFFFFFFFFFFFF0FF75
:100AA000FF0FFFF000000FFFF000000FFFF0FFFF4F
:100AB0000FFFF0FFFF0FFFF0FFFF0FFFF0FFFF0F33
:100AC000FFF03FFC0FFFFC0FF03FFFFF0000FFFFB8
:100AD000FFC003FFFFFFFFFFFFFFFFFFFFFFFFFF61
:100AE000FFFFFFFFFFFFFFFFFFF0FFFF0FFFF00023
:100AF000000FFFF000000FFFF0FC3F0FFFF0FC3F86
:100B00000FFFF0F00F0FFFF0F00F0FFFF0FFFF0FE0
:100B1000FFF00FF00FFFF00FF00FFFFFFFFFFFFFE1
:100B2000FFFFFFFFFFFFFFFFFFFFFFFFFFFFFFF0E4
:100B3000FFFF0FFFF000000FFFF000000FFFF0FCC1
:100B40003F0FFFF0FC3F0FFFF0F00F0FFFF0F00F33
:100B50000FFFFFFFFF0FFFFFFFF00FFFFFFFF00F83
:100B6000FFFFFFFFFFFFFFFFFFFFFFFFFFFFFFFF95
:100B7000FFFFFFFFFFFFC003FFFFFC00003FFFFC84
:100B800000003FFFF0FFFF0FFFF0FFFF0FFFF0F04F
:100B9000FF0FFFF0F0FF0FFFF0F0FC3FFFFC00F055
:100BA0000FFFFC00F00FFFFFF0FFFFFFFFFFFFFF55
:100BB000FFFFFFFFFFFFFFFFFFFFFFF0FFFF0FFF44
:100BC000F000000FFFF000000FFFF0FC3F0FFFFFF1
:100BD000FC3FFFFFFFFC3FFFFFF0FC3F0FFFF0007B
:100BE000000FFFF000000FFFF0FFFF0FFFFFFFFF00
:100BF000FFFFFFFFFFFFFFFFFFFFFFFFFFFFFFFF05
:100C0000FFFFFFFFFFFFF0FFFF0FFFF0FFFF0FFFF2
:100C1000F0FFFF0FFFF000000FFFF000000FFFF0EC
:100C2000FFFF0FFFF0FFFF0FFFF0FFFF0FFFFFFFC2
:100C3000FFFFFFFFFFFFFFFFFFFFFFFFFFFFFFFFC4
:100C4000FFFFFFFFFFFFFFFC00FFFFFFFC00FFFFB8
:100C5000FFF0FFFFFFFFF0FFFFFFFFF0FFFF0FFFC1
:100C6000F0FFFF0FFFF03FFF0FFFFC00000FFFFF43
:100C700000000FFFFFFFFF0FFFFFFFFF0FFFFFFF52
:100C8000FFFFFFFFFFFFFFFFFFFFFFFFFFF0FFFF83
:100C90000FFFF000000FFFF000000FFFF0FC3F0F10
:100CA000FFF0FF0F0FFFFFFC03FFFFFFC0F00FFF80
:100CB000FC03FC0FFFF03FFC0FFFF0FFFF0FFFF006
:100CC000FFFF0FFFFFFFFFFFFFFFFFFFFFFFFFFF24
:100CD000FFFFFFF0FFFF0FFFF0FFFF0FFFF000002F
:100CE0000FFFF000000FFFF0FFFF0FFFF0FFFF0FFF
:100CF000FFF0FFFFFFFFF0FFFFFFFFF003FFFFFF2D
:100D0000F003FFFFFFFFFFFFFFFFFFFFFFFFFFFFFE
:100D1000FFFFFFFFF0FFFF0FFFF000000FFFF000ED
:100D2000000FFFF0FFF00FFFF0FC03FFFFFFC03FDD
:100D3000FFFFFFC03FFFFFF0FC03FFFFF0FFF00FDE
:100D4000FFF000000FFFF000000FFFF0FFFF0FFFAC
:100D5000FFFFFFFFFFFFFFFFFFFFFFFFFFFFFFF0B2
:100D6000FFFF0FFFF000000FFFF000000FFFF0FF8C
:100D7000C03FFFF0FC03FFFFFFC03F0FFFFC03FF7E
:100D80000FFFF000000FFFF000000FFFFFFFFF0F4D
:100D9000FFFFFFFFFFFFFFFFFFFFFFFFFFFFFFFF63
:100DA000FFFFFFFFFFFFC003FFFFFF0000FFFFFC8F
:100DB0000FF03FFFF03FFC0FFFF0FFFF0FFFF0FFD2
:100DC000FF0FFFF03FFC0FFFFC0FF03FFFFF0000A5
:100DD000FFFFFFC003FFFFFFFFFFFFFFFFFFFFFF5E
:100DE000FFFFFFFFFFFFFFFFFFFFFFF0FFFF0FFF12
:100DF000F000000FFFF000000FFFF0F0FF0FFFF01A
:100E0000F0FF0FFFF0F0FF0FFFFFF0FF0FFFFFF00D
:100E10003C0FFFFFFC003FFFFFFF00FFFFFFFFFF56
:100E2000FFFFFFFFFFFFFFFFFFFFFFFFFFFFFFFFD2
:100E3000FFFFC003FFFFFF0000FFFC3C0FF03FFC83
:100E4000003FFC0FFF00FFFF0FFF00FFFF0FFC0044
:100E50003FFC0FFC3C0FF03FFC0F0000FFFF0FC0FA
:100E600003FFFFFFFFFFFFFFFFFFFFFFFFFFFFFF8E
:100E7000FFFFFFFFFFFFFFF0FFFF0FFFF000000F7E
:100E8000FFF000000FFFF0FC3F0FFFF0FC3F0FFFF3
:100E9000FFFC3F0FFFFFF03F0FFFFF000C0FFFFCB9
:100EA00003003FFFF0FFC0FFFFF0FFFFFFFFFFFF6A
:100EB000FFFFFFFFFFFFFFFFFFFFFFFFFFF00FC080
:100EC000FFFFF00F003FFFFC3F0C0FFFF0FC3F0F58
:100ED000FFF0FC3F0FFFF0FC3F0FFFF0FC3F0FFF68
:100EE000F030FC3FFFFC00F00FFFFF03F00FFFFFAF
:100EF000FFFFFFFFFFFFFFFFFFFFFFFFFFFFFFFF02
:100F0000FFFFFFFFFFC00FFFFFFFC00FFFF0FFFF5E
:100F10000FFFF0FFFF0FFFF000000FFFF000000FCA
:100F2000FFF0FFFF0FFFF0FFFF0FFFFFFFC00FFFFE
:100F3000FFFFC00FFFFFFFFFFFFFFFFFFFFFFFFFF0
:100F4000FFFFFFFFFFFFFFFFFFFFFFFF0FFFFF00A0
:100F5000000FFFFC00000FFFF03FFF0FFFF0FFFF4F
:100F6000FFFFF0FFFFFFFFF03FFF0FFFFC00000F50
:100F7000FFFF00000FFFFFFFFF0FFFFFFFFFFFFF5F
:100F8000FFFFFFFFFFFFFFFFFFFFFFFFFF0FFFFF61
:100F9000FFF00FFFFFFF000FFFFFC00F0FFFF0007C
:100FA000FFFFFFF03FFFFFFFF000FFFFFFFFC00F5D
:100FB0000FFFFFFF000FFFFFFFF00FFFFFFFFF0F0F
:100FC000FFFFFFFFFFFFFFFFFFFFFFFFFFFFFFFF31
:100FD000FFFFFF0FFFFFFC000FFFF000000FFFF00F
:100FE0000FFF0FFFFC00FF0FFFFFF003FFFFFFFFEE
:100FF00003FFFFFFF003FFFFFC00FF0FFFF00FFFF9
:101000000FFFF000000FFFFFFC000FFFFFFFFF0FBF
:10101000FFFFFFFFFFFFF0FFFF0FFFF03FFC0FFFA1
:10102000F00FF00FFFF0C3C30FFFFFF00FFFFFFF44
:10103000FC3FFFFFFFF00FFFFFF0C3C30FFFF00FF8
:10104000F00FFFF03FFC0FFFF0FFFF0FFFFFFFFF70
:10105000FFFFFFFFFFFFFFFFFFFFFFFFFFFFFFFFA0
:10106000FFFFFFFF0FFFFFFFFC0FFFF0FFF00FFF81
:10107000F0FF030FFFF0000FFFFFF0000FFFFFF086
:10108000FF030FFFF0FFF00FFFFFFFFC0FFFFFFF5D
:10109000FF0FFFFFFFFFFFFFFFFFFFFFFFFFFFFF50
:1010A000FFFFFFFFFFFFFFFFFFFFFFFFF03FF00F1E
:1010B000FFF00FF00FFFF0C3FF0FFFF0F03F0FFF47
:1010C000F0FC0F0FFFF0FFC30FFFF00FF00FFFF06A
:1010D0000FFC0FFFFFFFFFFFFFFFFFFFFFFFFFFF03
:1010E000FFFFFFFFFFFFFFFFFFFFFFFFFFFFFFFF10
:1010F000FFFFFFFFFFFFFFFFFFFFFFFFFFFFFFFF00
:10110000FC0000000FFC0000000FFC3FFFFF0FFC85
:101110003FFFFF0FFFFFFFFFFFFFFFFFFFFFFFFF8F
:10112000FFFFFFFFFFFFFFFFFFFFFFFFFFFFFFFFCF
:10113000FFFFFFFFFFFFFFFFFFFFFFF0FFFFFFFCD1
:1011400000FFFFFFC00FFFFFFC03FFFFFFC03FFFDB
:10115000FFF003FFFFFF003FFFFFFF0FFFFFFFFF59
:10116000FFFFFFFFFFFFFFFFFFFFFFFFFFFFFFFF8F
:10117000FFFFFFFFFFFFFFFFFFFFFFFFFFFFFFFF7F
:10118000FFFFFC3FFFFF0FFC3FFFFF0FFC000000D5
:101190000FFC0000000FFFFFFFFFFFFFFFFFFFFF3F
:1011A000FFFFFFFFFFFFFFFFFFFFFFFFFFFFFFFF4F
:1011B000FFFFFFFFFFFFFFFFFFFFFFFFFFFFFFFF3F
:1011C000FFC3FFFFFFFFF0FFFFFFFFFC3FFFFFFF3D
:1011D000FF0FFFFFFFFFC3FFFFFFFF0FFFFFFFFC3E
:1011E0003FFFFFFFF0FFFFFFFFC3FFFFFFFFFFFF1A
:1011F000FFFFFFFFFFFFFFFFFFFF0FFFFFFFFF0FDF
:10120000FFFFFFFF0FFFFFFFFF0FFFFFFFFF0FFFBE
:10121000FFFFFF0FFFFFFFFF0FFFFFFFFF0FFFFFAE
:10122000FFFF0FFFFFFFFF0FFFFFFFFF0FFFFFFF9E
:10123000FF0FFFFFFFFF0FFFFFFFFF0FFFFFFFFF8E
:10124000FFFFFFFFFFFFFFFFFFFFFFFFFFFFFFFFAE
:10125000FFFFFFFFFFFFFFFFFFFFFFFFFFF3FFFFAA
:10126000FFFFCFFFFFFFFFCFFFFFFFFF3FFFFFFFAE
:10127000FFFFFFFFFFFFFFFFFFFFFFFFFFFFFFFF7E
:10128000FFFFFFFFFFFFFFFFFFFFFFFFFFFFFFFF6E
:10129000FFFC0FFFFFFFF003CFFFFFF0C0C3FFFF16
:1012A000F0F0C3FFFFF0F0C3FFFFFC30C3FFFFF01F
:1012B0000003FFFFF0000FFFFFF0FFFFFFFFFFFF46
:1012C000FFFFFFFFFFFFFFFFFFFFFFFFFFFFFFFF2E
:1012D000FFFFF0FFFFC3FFF0000003FFF00000037B
:1012E000FFFC3F0FFFFFF0FFC3FFFFF0FFC3FFFF57
:1012F000F0FFC3FFFFF0FFC3FFFFFC3F0FFFFFFC4A
:10130000000FFFFFFFC0FFFFFFFFFFFFFFFFFFFF1B
:10131000FFFFFFFFFFFFFFFFFFFFFFFFFFFF00FFDC
:10132000FFFFFC000FFFFFF03F0FFFFFF0FFC3FFC9
:10133000FFF0FFC3FFFFF0FFC3FFFFF0FFC3FFFF9E
:10134000F0FFCFFFFFFC3C03FFFFFC3C03FFFFFF70
:10135000FFFFFFFFFFFFFFFFFFFFFFFFFFFFFFFF9D
:10136000FFFFFFFF00FFFFFFFC000FFFFFFC3F0F31
:10137000FFFFF0FFC3FFFFF0FFC3FFFFF0FFC3FF5E
:10138000FFF0FFC3FFFFFC3F0FC3FFF0000003FFB0
:10139000F0000003FFF0FFFFFFFFFFFFFFFFFFFF75
:1013A000FFFFFFFFFFFFFFFFFFFFC0FFFFFFFC008E
:1013B0000FFFFFFC300FFFFFF0F0C3FFFFF0F0C3A3
:1013C000FFFFF0F0C3FFFFF0F0C3FFFFF0F00FFFEF
:1013D000FFFC300FFFFFFC30FFFFFFFFFFFFFFFFB1
:1013E000FFFFFFFFFFFFFFFFFFFFFFFFFFFFFFFF0D
:1013F000FFFFFFFFF0FFC3FFFFF0FFC3FFFFF000A1
:10140000000FFFF0000003FFF0FFC3C3FFF0FFC3B6
:10141000C3FFF0FFC3C3FFF0FFC3C3FFFFFFFFC362
:10142000FFFFFFFFFFFFFFFFFFFFFFFFFFFFFFFFCC
:10143000FFFFFFFFFFFFC0FFFFFFFC000FFFF0FCFF
:101440003F0FFFF0F0FFC3FFF0F0FFC3FFF0F0FF2E
:10145000C3FFF0F0FFC3FFF03C3F0FFFFC000003B1
:10146000FFFF000003FFFFFFFFC3FFFFFFFFFFFFC2
:10147000FFFFFFFFFFFFFFFFFFFFFFF0FFFFC3FFC7
:10148000F0000003FFF0000003FFF0FF0FFFFFFF7D
:10149000FFC3FFFFFFFFC3FFFFF0FFC3FFFFF0002D
:1014A00003FFFFF0000FFFFFF0FFFFFFFFFFFFFF55
:1014B000FFFFFFFFFFFFFFFFFFFFFFFFFFFFFFFF3C
:1014C000FFFFFFFFFFFFF0FFC3FFFFF0FFC3FFFFC2
:1014D000F0FFC3FFFFF00003C3FFF00003C3FFF002
:1014E000FFFFFFFFF0FFFFFFFFF0FFFFFFFFFFFF2A
:1014F000FFFFFFFFFFFFFFFFFFFFFFFFFFFFFFFFFC
:10150000FFFFFFFFFFFFFFFFFFFFFFF0FFFFFFFFFA
:10151000F0FFFFC3FFF0FFFFC3FFF0FFFFC3FFF0CB
:10152000FFFFC3C3F0FFFFC3C3FC000003FFFF00C6
:101530000003FFFFFFFFFFFFFFFFFFFFFFFFFFFFB6
:10154000FFFFFFFFFFFFFFFFFFFFFFFFFFF0FFFFBA
:10155000C3FFF0000003FFF0000003FFFFF0FFFFF8
:10156000FFFFC003FFFFF00F03FFFFF03FC3FFFFCC
:10157000F0FFC3FFFFF0FFC3FFFFF0FFFFFFFFFF20
:10158000FFFFFFFFFFFFFFFFFFFFFFFFFFFFFFFF6B
:10159000FFFFFFFFFFFFFFFFF0FFFFC3FFF0FFFFB5
:1015A000C3FFF0FFFFC3FFF0000003FFF0000003E4
:1015B000FFF0FFFFFFFFF0FFFFFFFFF0FFFFFFFF68
:1015C000FFFFFFFFFFFFFFFFFFFFFFFFFFFFFFFF2B
:1015D000FFFFFFFFF0FFC3FFFFF00003FFFFF0007E
:1015E00003FFFFF0FFC3FFFFFFFFC3FFFFF0000398
:1015F000FFFFF0000FFFFFF0FFC3FFFFFFFFC3FF80
:10160000FFF00003FFFFF0000FFFFFF0FFFFFFFF01
:10161000FFFFFFFFFFFFFFFFFFFFFFFFFFFFFFF0E9
:10162000FFC3FFFFF00003FFFFF00003FFFFF0FF29
:101630000FFFFFFFFFC3FFFFFFFFC3FFFFF0FFC36D
:10164000FFFFF00003FFFFF0000FFFFFF0FFFFFFC1
:10165000FFFFFFFFFFFFFFFFFFFFFFFFFFFFFFFF9A
:10166000FFFFFFFFFFFFC0FFFFFFFC000FFFFFFCBE
:101670003F0FFFFFF0FFC3FFFFF0FFC3FFFFF0FFCF
:10168000C3FFFFF0FFC3FFFFFC3F0FFFFFFC000F96
:10169000FFFFFFC0FFFFFFFFFFFFFFFFFFFFFFFF99
:1016A000FFFFFFFFFFF0FFFFC3FFF0000003FFF0AD
:1016B000000003FFF0FC3F0FFFF0F0FFC3FFFFF05F
:1016C000FFC3FFFFF0FFC3FFFFF0FFC3FFFFFC3FBF
:1016D0000FFFFFFC000FFFFFFFC0FFFFFFFFFFFF3B
:1016E000FFFFFFFFFFFFFFFFFFFFFFFFFFFFFFFF0A
:1016F000FFFFC0FFFFFFFC000FFFFFFC3F0FFFFFDE
:10170000F0FFC3FFFFF0FFC3FFFFF0FFC3FFF0F0E8
:10171000FFC3FFF0FC3F0FFFF0000003FFF00000ED
:1017200003FFF0FFFFC3FFFFFFFFFFFFFFFFFFFF10
:10173000FFFFFFFFFFFFFFF0FFC3FFFFF0FFC3FF4F
:10174000FFF00003FFFFF00003FFFFF0FC3FFFFF8F
:10175000F0FF0FFFFFF0FFC3FFFFF0FFC3FFFFFF2E
:10176000FF03FFFFFFFF0FFFFFFFFFFFFFFFFFFF75
:10177000FFFFFFFFFFFFFFFFFFFFFFFFFFFFFFFF79
:10178000FFFFF03C0FFFFFF0300FFFFFF0F0C3FF53
:10179000FFF0F0C3FFFFF0C3C3FFFFF0C3C3FFFFC1
:1017A000FC0303FFFFFC0F03FFFFFFFFFFFFFFFF33
:1017B000FFFFFFFFFFFFFFFFFFFFFFFFFFFFFFFF39
:1017C000FFFFFFFFFFC3FFFFFFFFC3FFFFFC0000A2
:1017D0000FFFF000000FFFF0FFC3FFFFF0FFC3FF9C
:1017E000FFF0FFC3FFFFF0FFC3FFFFFC3FC3FFFF9E
:1017F000FC3FFFFFFFFFFFFFFFFFFFFFFFFFFFFFBC
:10180000FFFFFFFFFFFFFFFFFFFFFFC3FFFFFC0026
:1018100003FFFFF00003FFFFF0FFFFFFFFF0FFFFFC
:10182000FFFFF0FFFFFFFFFC3FC3FFFFF00003FFE0
:10183000FFF00003FFFFF0FFFFFFFFFFFFFFFFFFD1
:10184000FFFFFFFFFFFFFFFFFFFFFFFFC3FFFFFFE4
:10185000FF03FFFFFFF003FFFFFF00C3FFFFF00FD9
:10186000FFFFFFF0FFFFFFFFF00FFFFFFFFF00C3D1
:10187000FFFFFFF003FFFFFFFF03FFFFFFFFC3FFBB
:10188000FFFFFFFFFFFFFFFFFFFFFFFFFFFFFFFF68
:10189000FFFFC3FFFFFFF003FFFFF00003FFFFF0B8
:1018A0000FC3FFFFFF03FFFFFFFFF03FFFFFFF033B
:1018B000FFFFFFF00FC3FFFFF00003FFFFFFF00388
:1018C000FFFFFFFFC3FFFFFFFFFFFFFFFFFFFFFF64
:1018D000FFFFFFFFFFFFFFFFFFFFFFF0FFC3FFFF63
:1018E000F0FFC3FFFFF03F03FFFFF00C03FFFFFF1C
:1018F000C0FFFFFFFFC0FFFFFFF00C03FFFFF03F43
:1019000003FFFFF0FFC3FFFFF0FFC3FFFFFFFFFF79
:10191000FFFFFFFFFFFFFFFFFFFFFFF0FFFFC3FF22
:10192000F0FFFF03FFF0FFF003FFF03F00C3FFF005
:10193000000FFFFFF0C03FFFFFF0FC0FFFFFFFFFB6
:1019400000C3FFFFFFF003FFFFFFFF03FFFFFFFFE9
:10195000C3FFFFFFFFFFFFFFFFFFFFFFFFFFFFFFD3
:10196000FFFFFFFFFFFFFFFFFFFFFFFFF0FF03FF92
:10197000FFF03F03FFFFF00FC3FFFFF0C3C3FFFF04
:10198000F0F0C3FFFFF0FC03FFFFF03F03FFFFF0A9
:101990003FC3FFFFFFFFFFFFFFFFFFFFFFFFFFFF53
:1019A000FFFFFFFFFFFFFFFFFFFFFFFFFFFFFFFF47
:1019B000FFFFFFFFFFFFFFFFF3FFFFFFFFC0FFFF82
:1019C000FF0000000FFC000C0003FC3FFFFFC3FC06
:1019D0003FFFFFC3FFFFFFFFFFFFFFFFFFFFFFFF13
:1019E000FFFFFFFFFFFFFFFFFFFFFFFFFFFFFFFF07
:1019F000FFFFFFFFFFFFFFFFFFFFFFFFFFFFFFFFF7
:101A0000FFFFFFFFFFFFFC00000003FC00000003DE
:101A1000FFFFFFFFFFFFFFFFFFFFFFFFFFFFFFFFD6
:101A2000FFFFFFFFFFFFFFFFFFFFFFFFFFFFFFFFC6
:101A3000FFFFFFFFFFFFFFFFFFFFFFFFFFFC3FFF79
:101A4000FFC3FC3FFFFFC3FC000C0003FF000000CE
:101A50000FFFFFC0FFFFFFFFF3FFFFFFFFFFFFFFD1
:101A6000FFFFFFFFFFFFFFFFFFFFFFFFFFFFFFFF86
:101A7000FFFFFFFFFFFFFFFFFFFFFFFFFFFFFFFF76
:101A8000FC3FFFFFFFFC3FFFFFFFFF0FFFFFFFFFDC
:101A90000FFFFFFFFC0FFFFFFFF03FFFFFFFF0FF17
:101AA000FFFFFFF0FFFFFFFFF03FFFFFFFFC3FFFE7
:101AB000FFFFFFFFFFFFFFFFFFFF0000FFFFFFFF34
:101AC000FFFFFFFFFFFFFFFFFFFFFFFFFFFFFFFF26
:101AD000FFFFFFFFFFFFFFFFFFFFFFFFFFFFFFFF16
:101AE000FFFFFFFFFFFFFFFFFFFFFFFFFFFFFFFF06
:101AF000FFFFFFFFFFFFFFFFFFCC0003FFCC000352
:101B0000FFFFFFFFFFFFFFFFFFFFFFFFFFFFFFFFE5
:101B1000FFFFFFFFFFFFFFFFFFFFFFFFFFFFFFFFD5
:101B2000FFFFFF0FFFFFC00FFFFFFF0FFFFFFFFFD4
:101B3000FFFFFF0FFFFFC00FFFFFFF0FFFFFFFFFC4
:101B4000FFFFFFFFFFFFFFFFFFFF33FFFF0003FF6C
:101B5000FF000003FFFF3003FF0003FFFF0000034F
:101B6000FFFF3003FFFF33FFFFFFFFFFFFFFFFFF1C
:101B7000FFFFFFFFFFC0FC0FFFC0F003FFCFC0F36C
:101B8000FC0FC3F0FFCF03F3FFC00F03FFF03F03D1
:101B9000FFFFFFFFFFFFFFFFFFFFFFFFFFFFFFFF55
:101BA000FFFF3F0FFFFF0CF3FFFFCCF3FFFFC30F5F
:101BB000FFF0C3FFFFCF33FFFFCF30FFFFF0FCFF8D
:101BC000FFFFFFFFFFFFFFFFFFFFFFFFFFF0FFFF34
:101BD000FFC0303FFFCF000FFFCC0FCFFFF0FFCF94
:101BE000FFC03FCFFFCF3FCFFFFFFFFFFFFFFFFF54
:101BF000FFFFFFFFFFFFFFFFFFFFFFFFFFFFFFFFF5
:101C0000FFFFFFFFFFFFFF0FFFFFC00FFFFFFF0FF3
:101C1000FFFFFFFFFFFFFFFFFFFFFFFFFFFFFFFFD4
:101C2000FFFFFFFFFFFFFFFFFFFFFFFFFFF000FFD2
:101C3000FFC0003FFC03FC03FC3FFFC3FFFFFFFFAF
:101C4000FFFFFFFFFFFFFFFFFFFFFFFFFFFFFFFFA4
:101C5000FFFFFFFFFC3FFFC3FC03FC03FFC0003F8F
:101C6000FFF000FFFFFFFFFFFFFFFFFFFFFFFFFF92
:101C7000FFFFFFFFFFFFFFFFFFFFFFFFFFFFFC3F37
:101C8000FFFF0C3FFFFF003FFFFFF003FFFFF003EC
:101C9000FFFF003FFFFF0C3FFFFFFC3FFFFFFFFF89
:101CA000FFFFFFFFFFFFFFFFFFFFCFFFFFFFCFFFA4
:101CB000FFFFCFFFFFF0003FFFFFCFFFFFFFCFFF92
:101CC000FFFFCFFFFFFFFFFFFFFFFFFFFFFFFFFF54
:101CD000FFFFFFFFFFFFFFFFFFFFFFFFF03FFFFFE3
:101CE000FF03FFFFFFF3FFFFFFFFFFFFFFFFFFFF0C
:101CF000FFFFFFFFFFFFFFFFFFFFFFFFFFFFFFFFF4
:101D0000FFFFCFFFFFFFCFFFFFFFCFFFFFFFCFFFA3
:101D1000FFFFCFFFFFFFCFFFFFFFCFFFFFFFFFFF63
:101D2000FFFFFFFFFFFFFFFFFFFFFFFFFFFFFFFFC3
:101D3000FFFFFFFFFFC3FFFFFFC3FFFFFFFFFFFF2B
:101D4000FFFFFFFFFFFFFFFFFFFFFFFFFFFFFFFFA3
:101D5000FFFFFFFFFFFFFFFFFC3FFFFFFC03FFFF55
:101D6000FFC03FFFFFFC0FFFFFFFC0FFFFFFF00FB3
:101D7000FFFFFF00FFFFFFF0FFFFFFFFFFFFFFFF81
:101D8000FFFFFFFFFFFC003FFFF0000FFFC3FFC39B
:101D9000FFCFFFF3FFC3FFC3FFF0000FFFFC003FC7
:101DA000FFFFFFFFFFFFFFFFFFFFFFFFFFFFFFFF43
:101DB000FFCFFFCFFFCFFFCFFFCFFFCFFFC000038D
:101DC000FFC00003FFCFFFFFFFCFFFFFFFCFFFFFED
:101DD000FFFFFFFFFFFFFFFFFFFFFFFFFFC3FC3F12
:101DE000FFC0FC0FFFCC3FC3FFCF0FF3FFCFC3F308
:101DF000FFCFF003FFCFFC0FFFFFFFFFFFFFFFFF51
:101E0000FFFFFFFFFFF3FFCFFFC3FFC3FFCFF3F3DE
:101E1000FFCFF3F3FFCFF3F3FFCFC0F3FFC0000317
:101E2000FFF00F0FFFFFFFFFFFFFFFFFFFFFFFFFB1
:101E3000FFFFFFFFFFFC3FFFFFFC03FFFFCCF03F76
:101E4000FFCCFF03FFC00003FFC00003FFCCFFFF78
:101E5000FFFFFFFFFFFFFFFFFFFFFFFFFFFFFFFF92
:101E6000FFF3FFFFFFCFC003FFCFF003FFCFF3F37C
:101E7000FFCFF3F3FFC003F3FFF00FF3FFFFFFFF0C
:101E8000FFFFFFFFFFFFFFFFFFFFFFFFFFFC00FF64
:101E9000FFF0003FFFC3CF0FFFCFF3C3FFCFF3F33C
:101EA000FFC003F3FFF00FF3FFFFFFFFFFFFFFFF94
:101EB000FFFFFFFFFFFFFFFFFFFFFFC3FFFFFFF37A
:101EC000FFFFFFF3FFC0FFF3FFC000F3FFFF0003BE
:101ED000FFFFFF03FFFFFFFFFFFFFFFFFFFFFFFF0E
:101EE000FFFFFFFFFFF00C0FFFC00003FFCFF3F376
:101EF000FFCFF3F3FFCFF3F3FFC00003FFF00C0FAE
:101F0000FFFFFFFFFFFFFFFFFFFFFFFFFFFFFFFFE1
:101F1000FFCFF00FFFCFC003FFCFCFF3FFC3CFF34F
:101F2000FFF0F3C3FFF0000FFFFF003FFFFFFFFFD5
:101F3000FFFFFFFFFFFFFFFFFFFFFFFFFFFFFFFFB1
:101F4000FFFFFFFFFFC3F0FFFFC3F0FFFFFFFFFF37
:101F5000FFFFFFFFFFFFFFFFFFFFFFFFFFFFFFFF91
:101F6000FFFFFFFFFFFFFFFFFFFFFFFFFFFFFFFF81
:101F7000FC3FFFFFFFC3FFFFFFF3F0FFFFFFF0FF9A
:101F8000FFFFFFFFFFFFFFFFFFFFFFFFFFFFFFFF61
:101F9000FFFFCFFFFFFFCFFFFFFF33FFFFFF33FF49
:101FA000FFFCFCFFFFF3FF3FFFF3FF3FFFCFFFCF3F
:101FB000FFCFFFCFFFFFFFFFFFFFFFFFFFFFFFFF91
:101FC000FFFF33FFFFFF33FFFFFF33FFFFFF33FF51
:101FD000FFFF33FFFFFF33FFFFFF33FFFFFFFFFF75
:101FE000FFFFFFFFFFFFFFFFFFCFFFCFFFCFFFCFC1
:101FF000FFF3FF3FFFF3FF3FFFFCFCFFFFFF33FF5B
:10200000FFFF33FFFFFFCFFFFFFFCFFFFFFFFFFF0C
:10201000FFFFFFFFFFFFFFFFFFFFFC3FFFFFFC0F86
:10202000FFCC3FCFFFCC0FCFFFFFCFCFFFFFC00FC5
:10203000FFFFF03FFFFFFFFFFFFFFFFFFFFFFFFF7F
:10204000FFFFFFFFFFF0003FFFCFFFCFFF3F0FF38A
:10205000FF3CF3F3FF3CF3F3FFCC000FFFFFFFFF68
:10206000FFFFFFFFFFFFFFFFFFFFFFFFFFCFFFFFB0
:10207000FFC0FFCFFFC003CFFFCF000FFFFF3F0F19
:10208000FFFF3F0FFFCF000FFFC003FFFFC0FFFFA9
:10209000FFCFFFFFFFFFFFFFFFCFFFCFFFC0000F0E
:1020A000FFC0000FFFCFCFCFFFCFCFCFFFCFCFCF1E
:1020B000FFC0000FFFF0303FFFFFFFFFFFFFFFFFFC
:1020C000FFFFFFFFFFFC00FFFFF0003FFFC3FF0F1C
:1020D000FFCFFFCFFFCFFFCFFFCFFFCFFFCFFFCF90
:1020E000FFF3FF3FFFFCFC0FFFFFFFFFFFFFFFFFC2
:1020F000FFCFFFCFFFC0000FFFC0000FFFCFFFCF0C
:10210000FFCFFFCFFFCFFFCFFFC3FF0FFFF0003F99
:10211000FFFC00FFFFFFFFFFFFFFFFFFFFCFFFCF31
:10212000FFC0000FFFC0000FFFCFCFCFFFCFCFCF3B
:10213000FFCF03CFFFCFFFCFFFC0FC0FFFFFFFFF9D
:10214000FFFFFFFFFFFFFFFFFFCFFFCFFFC0000F2D
:10215000FFC0000FFFCFCFCFFFCFCFCFFFFF03CF09
:10216000FFFFFFCFFFFFFC0FFFFFFFFFFFFFFFFFA2
:10217000FFFFFFFFFFFC00FFFFF0003FFFC3FF0F6B
:10218000FFCFFFCFFFCF3FCFFFCF3FCFFFC03F3FBE
:10219000FFC03C0FFFFF3FFFFFFFFFFFFFFFFFFF01
:1021A000FFCFFFCFFFC0000FFFC0000FFFCFCFCF8B
:1021B000FFFFCFFFFFCFCFCFFFC0000FFFC0000F4B
:1021C000FFCFFFCFFFFFFFFFFFFFFFFFFFFFFFFF7F
:1021D000FFCFFFCFFFCFFFCFFFCFFFCFFFC0000F5D
:1021E000FFC0000FFFCFFFCFFFCFFFCFFFCFFFCF4D
:1021F000FFFFFFFFFFFFFFFFFFF03FFFFFC03FFFBD
:10220000FFCFFFCFFFCFFFCFFFCFFFCFFFC0000F2C
:10221000FFF0000FFFFFFFCFFFFFFFCFFFFFFFFF2C
:10222000FFFFFFFFFFCFFFCFFFC0000FFFC0000F7A
:10223000FFCF0FCFFFFF03FFFFFC30CFFFC0FC0F2E
:10224000FFC3FF0FFFCFFFCFFFFFFFFFFFFFFFFF2A
:10225000FFCFFFCFFFCFFFCFFFC0000FFFC0000FAA
:10226000FFCFFFCFFFCFFFCFFFCFFFFFFFCFFFFF9E
:10227000FFC03FFFFFFFFFFFFFCFFFCFFFC0000FFB
:10228000FFC0000FFFCFF0FFFFCF03FFFFFC3FFFBA
:10229000FFCF03FFFFCFF0FFFFC0000FFFC0000F15
:1022A000FFCFFFCFFFFFFFFFFFCFFFCFFFC0000F2C
:1022B000FFC0000FFFCFF0FFFFFF03FFFFFC3FCF8A
:1022C000FFC0000FFFC0000FFFFFFFCFFFFFFFFFAA
:1022D000FFFFFFFFFFFC00FFFFF0003FFFC3FF0F0A
:1022E000FFCFFFCFFFCFFFCFFFCFFFCFFFC3FF0F4A
:1022F000FFF0003FFFFC00FFFFFFFFFFFFFFFFFFBE
:10230000FFCFFFCFFFC0000FFFC0000FFFCF3FCFB9
:10231000FFCF3FCFFFCF3FCFFFFF000FFFFFC03FFB
:10232000FFFFFFFFFFFFFFFFFFFFFFFFFFFC00FFBF
:10233000FFF0003FFCC3FF0FFC0FFFCFFC0FFFCFF0
:10234000FCCFFFCFFCC3FF0FFC30003FFF3C00FF82
:10235000FFFFFFFFFFFFFFFFFFCFFFCFFFC0000F1B
:10236000FFC0000FFFCFCFCFFFCFCFCFFFFF0FCFEB
:10237000FFF0300FFFC0F03FFFCFFFFFFFCFFFFFA9
:10238000FFFFFFFFFFFFFFFFFFC0F03FFFC0C00FD9
:10239000FFCFC3CFFFCFCFCFFFCF0FCFFFC00C0FEB
:1023A000FFF03C0FFFFFFFFFFFFFFFFFFFFFFFFFFF
:1023B000FFFFF00FFFCFFFCFFFCFFFCFFFC0000F1A
:1023C000FFC0000FFFCFFFCFFFCFFFCFFFFFF00F0A
:1023D000FFFFFFFFFFFFFFFFFFFFFFFFFFFFFFCF3D
:1023E000FFF0000FFFF0000FFFCFFFCFFFCFFFFF89
:1023F000FFCFFFCFFFF0000FFFF0000FFFFFFFCF79
:10240000FFFFFFFFFFFFFFFFFFFFFFCFFFFFFC0FFF
:10241000FFFF000FFFC003CFFFC3FFFFFFC003CFCD
:10242000FFFF000FFFFFFC0FFFFFFFCFFFFFFFFFCE
:10243000FFFFFFCFFFFFC00FFFC0000FFFC0FFCFA8
:10244000FFF003CFFFFFC0FFFFF003CFFFC0FFCFC0
:10245000FFC0000FFFFFC00FFFFFFFCFFFFFFFFF19
:10246000FFCFFFCFFFC3FF0FFFC0FC0FFFCC00CF9C
:10247000FFFF03FFFFCC00CFFFC0FC0FFFC3FF0F28
:10248000FFCFFFCFFFFFFFFFFFFFFFFFFFFFFFCFEC
:10249000FFFFFF0FFFCFFC0FFFCFF0CFFFC003FF09
:1024A000FFC003FFFFCFF0CFFFCFFC0FFFFFFF0FF9
:1024B000FFFFFFCFFFFFFFFFFFFFFFFFFFC3FC0F8B
:1024C000FFC0FFCFFFCC3FCFFFCF03CFFFCFF0CF79
:1024D000FFCFFC0FFFC0FF0FFFFFFFFFFFFFFFFF5E
:1024E000FFFFFFFFFFFFFFFFFFFFFFFFFFFFFFFFFC
:1024F000FFFFFFFFFC000003FC000003FCFFFFF3F5
:10250000FCFFFFF3FFFFFFFFFFFFFFFFFFFFFFFFEA
:10251000FFFFFFFFFFFFFFF0FFFFFF00FFFFF00FD8
:10252000FFFFC0FFFFFC0FFFFFC03FFFFC03FFFFEB
:10253000FC3FFFFFFFFFFFFFFFFFFFFFFFFFFFFF6E
:10254000FFFFFFFFFCFFFFF3FCFFFFF3FC000003B6
:10255000FC000003FFFFFFFFFFFFFFFFFFFFFFFF88
:10256000FFFFFFFFFFFFFFFFFFFFFFFFFFFFF0FF8A
:10257000FFFFFF3FFFFFFFC3FFFFFFFCFFFFFFC3A6
:10258000FFFFFF3FFFFFF0FFFFFFFFFFFFFFFFFF2A
:102590003FFFFFFF3FFFFFFF3FFFFFFF3FFFFFFF4B
:1025A0003FFFFFFF3FFFFFFF3FFFFFFF3FFFFFFF3B
:1025B0003FFFFFFF3FFFFFFF3FFFFFFFFFFFFFFF6B
:1025C000FFFFFFFFFFFFFFFFFFFFFFFFFFFFFFFC1E
:1025D000FFFFFFF3FFFFFFCFFFFFFFFFFFFFFFFF47
:1025E000FFFFFFFFFFFFFFFFFFFFFFFFFFFFFFFFFB
:1025F000FFF0FFFFFFC03CFFFFCF3CFFFFCF3CFFE2
:10260000FFF33CFFFFC000FFFFC003FFFFCFFFFF52
:10261000FFFFFFFFFFFFFFFFFFCFFFF3FFC0000340
:10262000FFC00003FFF3F3FFFFCFFCFFFFCFFCFF72
:10263000FFC3F0FFFFF003FFFFFC0FFFFFFFFFFFF3
:10264000FFFFFFFFFFFC0FFFFFF003FFFFC3F0FFE3
:10265000FFCFFCFFFFCFFCFFFFCFFCFFFFC3F3FF6B
:10266000FFF0C0FFFFFFFFFFFFFFFFFFFFFFFFFFC8
:10267000FFFC0FFFFFF003FFFFC3F0FFFFCFFCFFE6
:10268000FFCFFCFFFFF3F3F3FFC00003FFC0000325
:10269000FFCFFFFFFFFFFFFFFFFFFFFFFFFC0FFF6D
:1026A000FFF003FFFFC330FFFFCF3CFFFFCF3CFF36
:1026B000FFCF30FFFFC303FFFFF30FFFFFFFFFFF5D
:1026C000FFFFFFFFFFFFFFFFFFFFFFFFFFCFFCFF4D
:1026D000FFCFFCFFFFC0000FFFC00003FFCFFCF3E4
:1026E000FFCFFCF3FFCFFCF3FFFFFFF3FFFFFFF390
:1026F000FFFFFFFFFFFC0FFFFFF003FFF3C3F0FF3F
:10270000F3CFFCFFF3CFFCFFF3F3F3FFF00000FF88
:10271000FC0000FFFFFFFCFFFFFFFFFFFFFFFFFFCD
:10272000FFCFFFF3FFC00003FFC00003FFCFF3FFA5
:10273000FFFFFCFFFFCFFCFFFFC000FFFFC003FF58
:10274000FFCFFFFFFFFFFFFFFFFFFFFFFFFFFFFFC9
:10275000FFCFFFFFFFCFFCFFFFCFFCFFFFC000C399
:10276000FFC000C3FFCFFFFFFFCFFFFFFFCFFFFF83
:10277000FFFFFFFFFFFFFFFFFFFFFFFFF3FFFCFF78
:10278000F3FFFCFFF3FFFCFFF3FFFCC3F00000C30B
:10279000FC0000FFFFFFFFFFFFFFFFFFFFFFFFFF4A
:1027A000FFFFFFFFFFCFFFF3FFC00003FFC00003E9
:1027B000FFFF0FFFFFCC00FFFFC0F0FFFFC3FCFFD8
:1027C000FFCFFCFFFFCFFFFFFFFFFFFFFFFFFFFF7C
:1027D000FFCFFFFFFFCFFFF3FFCFFFF3FFC00003EB
:1027E000FFC00003FFCFFFFFFFCFFFFFFFCFFFFFC3
:1027F000FFFFFFFFFFFFFFFFFFFFFFFFFFCFFCFF1C
:10280000FFC000FFFFC000FFFFFFFCFFFFC000FF95
:10281000FFC000FFFFFFFCFFFFC000FFFFC003FF82
:10282000FFCFFFFFFFFFFFFFFFCFFCFFFFC000FF59
:10283000FFC000FFFFCFF3FFFFFFFCFFFFCFFCFF58
:10284000FFC000FFFFC003FFFFCFFFFFFFFFFFFF41
:10285000FFFFFFFFFFFC0FFFFFF003FFFFC3F0FFD1
:10286000FFCFFCFFFFCFFCFFFFCFFCFFFFC3F0FF5C
:10287000FFF003FFFFFC0FFFFFFFFFFFFFFFFFFF66
:10288000F3FFFCFFF00000FFF00000FFF3F3F3FFA5
:10289000F3CFFCFFFFCFFCFFFFC3F0FFFFF003FF10
:1028A000FFFC0FFFFFFFFFFFFFFFFFFFFFFC0FFF1E
:1028B000FFF003FFFFC3F0FFFFCFFCFFF3CFFCFFF0
:1028C000F3F3F3FFF00000FFF00000FFF3FFFCFF65
:1028D000FFFFFFFFFFFFFFFFFFCFFCFFFFCFFCFF6E
:1028E000FFC000FFFFC000FFFFCFF3FFFFCFFCFFE3
:1028F000FFCFFCFFFFFFF0FFFFFFF3FFFFFFFFFF36
:10290000FFFFFFFFFFC3C3FFFFC300FFFFCF0CFFAD
:10291000FFCF0CFFFFCC3CFFFFC030FFFFF0F0FF0C
:10292000FFFFFFFFFFFFFFFFFFFFFFFFFFFFFFFFB7
:10293000FFFFFCFFFFFFFCFFFFF00003FFC00003F1
:10294000FFCFFCFFFFCFFCFFFFCFFCFFFFF3FFFF3C
:10295000FFFFFFFFFFFFFFFFFFFFFFFFFFFFFCFF8A
:10296000FFF000FFFFC000FFFFCFFFFFFFCFFFFF23
:10297000FFF3FCFFFFC000FFFFC000FFFFCFFFFF22
:10298000FFFFFFFFFFFFFFFFFFFFFCFFFFFFC0FF99
:10299000FFFC00FFFFC03CFFFFC3FFFFFFC03CFF89
:1029A000FFFC00FFFFFFC0FFFFFFFCFFFFFFFFFF7B
:1029B000FFFFFCFFFFFF00FFFFC000FFFFC0FCFFA9
:1029C000FFF03FFFFFFF0FFFFFF03FFFFFC0FCFFE7
:1029D000FFC000FFFFFF00FFFFFFFCFFFFFFFFFF47
:1029E000FFCFFCFFFFCFFCFFFFC3F0FFFFC000FFE6
:1029F000FFFC0FFFFFC000FFFFC3F0FFFFCFFCFF96
:102A0000FFCFFCFFFFFFFFFFFFFFFFFFFFFFFCFF0C
:102A1000F3FFF0FFF3FF00FFF0F00CFFF003FFFF08
:102A2000F300FFFFFFF00CFFFFFF00FFFFFFF0FFD1
:102A3000FFFFFCFFFFFFFFFFFFFFFFFFFFC3F0FFF4
:102A4000FFC0FCFFFFCC3CFFFFCF3CFFFFCF0CFFE4
:102A5000FFCFC0FFFFC3F0FFFFFFFFFFFFFFFFFF40
:102A6000FFFFFFFFFFFFFFFFFFFFFFFFFFFF3FFF36
:102A7000FF00000FFC00C003FCFFFFF3FFFFFFFFA0
:102A8000FFFFFFFFFFFFFFFFFFFFFFFFFFFFFFFF56
:102A9000FFFFFFFFFFFFFFFFFFFFFFFFFFFFFFFF46
:102AA000FC000003FC000003FFFFFFFFFFFFFFFF30
:102AB000FFFFFFFFFFFFFFFFFFFFFFFFFFFFFFFF26
:102AC000FFFFFFFFFFFFFFFFFCFFFFF3FC00C00362
:102AD000FF00000FFFFF3FFFFFFFFFFFFFFFFFFFB4
:102AE000FFFFFFFFFFFFFFFFFFFFFFFFFFFFCFFF26
:102AF000FFFFF3FFFFFFF3FFFFFFCFFFFFFF3FFFEE
:102B0000FFFF3FFFFFFFCFFFFFFFFFFFFFFFFFFFC5
:102B1000FFFFFFFFFFFFFFFFFFFFFFFFFFFFFFFFC5
:102B2000FFFFFFFFFFFFFFFFFFFFFFFFFFFFFCF0C7
:102B300003FFFFFFFFFFFFFFFFFFFCF003FCF003BD
:102B4000FCF003FCF003FCF003FCF003FCF003FFDB
:102B5000FFFFF0CCFFFF003FF0CCC3FF003FF0CC05
:102B6000C3FFFFFFFFFFFFFF0C3FFF33CFF033C377
:102B7000FFC3CFFFFFFFFFFFFFFFFFFFFFF3CFFF0D
:102B8000F333FF33CFFCCCFFFF3CFFFFFFFFFFFF22
:102B9000FFFF0FFFFCF0FFFCCF3FFF3F3FFCCFFFED
:102BA000FFFFFFFFFFFFFFFFFFFFFFFFFFFCF3FF44
:102BB000FFFFFFFFFFFFFFFFFFFFFFFFFFFFFFFF25
:102BC000FFFCFF3FC3FFC3FFFFFFFFFFFFFFFFFF50
:102BD000FFFFFFC3FFC3FCFF3FFFFFFFFFFFFFFF40
:102BE000FFFFFFFFFFFFFFCFFFF0CFFFFF03FFF06F
:102BF000CFFFFFCFFFFFFFFFF3FFFFF3FFFFF3FF69
:102C0000FC000FFFF3FFFFF3FFFFF3FFFFFFFFFFEA
:102C1000FFFFC3FFFFF03FFFFF3FFFFFFFFFFFFF8F
:102C2000FFFFFFFFFFF3FFFFF3FFFFF3FFFFF3FFE4
:102C3000FFF3FFFFFFFFFFFFFFFFFFFFFC3FFFFC76
:102C40003FFFFFFFFFFFFFFFFFFFFFFFFFFFF3FF60
:102C5000FFFC3FFFFFC3FFFFFC3FFFFFC3FFFFFF82
:102C6000FFFFFFFF000FFCFFF3FCFFF3FCFFF3FF90
:102C7000000FFFFFFFFFFFFFFCFFFFFCFFF3FC0067
:102C800003FCFFFFFCFFFFFFFFFFFFFFFFFC3FCF49
:102C9000FCCFF3FCF3F3FCFCF3FC3F0FFFFFFFFF63
:102CA000FFFFFF3FCFFCFFF3FCFCF3FCFCF3FF0353
:102CB0000FFFFFFFFFFFFFFFC3FFFFCCFFFFCF0FA3
:102CC000FCCFF3FC0003FCCFFFFFFFFFFF3FFFFC47
:102CD000FC03FCFCF3FCFCF3FF03F3FFFFFFFFFF2F
:102CE000FFFF003FFCFCCFFCFCF3FCFCF3FF03F315
:102CF000FFFFFFFFFFFFFFFFC3FFFFF3FC3FF3FFFB
:102D0000C0F3FFFF03FFFFFFFFFFFFFF030FFCFC0C
:102D1000F3FCFCF3FCFCF3FF030FFFFFFFFFFFFFDF
:102D2000FCFC0FFCF3F3FCF3F3FF33F3FFC00FFFE6
:102D3000FFFFFFFFFFFFFFFFFC3C3FFC3C3FFFFFAF
:102D4000FFFFFFFFFFFFFFFFFFFFFFFFFFF0FFFFA2
:102D5000FC3CCFFF3CCFFFFFFFFFFFFFFFF3FFFF78
:102D6000CCFFFFCCFFFF3F3FFCFFCFFCFFCFFFFFBF
:102D7000FFFFFFFFFFCCFFFFCCFFFFCCFFFFCCFF2F
:102D8000FFCCFFFFFFFFFCFFCFFCFFCFFF3F3FFF6C
:102D9000CCFFFFCCFFFFF3FFFFFFFFFFFFFFFFFFB5
:102DA000FFFCFF3FFCFFCFFFF3CFFFFC3FFFFFFF28
:102DB000FFFFFFFC0003F3FFFCF3F0FCF3CF3CFC50
:102DC000C003FFFFFFFCFFFFFC0FFFFCC033FFCF82
:102DD000C3FCC03FFC0FFFFCFFFFFCFFF3FC000344
:102DE000FCFCF3FCFCF3FCFCF3FF030FFFFFFFFF15
:102DF000FFFFFF000FFCFFF3FCFFF3FCFFF3FF3FBF
:102E0000C3FFFFFFFCFFF3FC0003FCFFF3FCFFF339
:102E1000FF3FCFFFC03FFFFFFFFCFFF3FC0003FCC1
:102E2000FCF3FCF033FCFFF3FC3FC3FFFFFFFFFFAD
:102E3000FFFCFFF3FC0003FCFCF3FFF033FFFFF3A8
:102E4000FFFFC3FFFFFFFF000FFCFFF3FCF3F3FFE7
:102E500003C3FFF3FFFFFFFFFCFFF3FC0003FCFCD9
:102E6000F3FFFCFFFCFCF3FC0003FCFFF3FFFFFFA0
:102E7000FCFFF3FCFFF3FC0003FCFFF3FCFFF3FF9C
:102E8000FFFFFFFFFFFF03FFFCFFF3FCFFF3FF006B
:102E900003FFFFF3FFFFFFFCFFF3FC0003FCF3F372
:102EA000FFF0FFFFCF33FC3FC3FCFFF3FFFFFFFC4E
:102EB000FFF3FC0003FCFFF3FCFFFFFC0FFFFFFF31
:102EC000FFFCFFF3FC0003FCFF03FFF0FFFCFF032C
:102ED000FC0003FCFFF3FCFFF3FC0003FCFF03FF1B
:102EE000C0FFFC3FF3FC0003FFFFF3FFFFFFFF0009
:102EF0000FFCFFF3FCFFF3FCFFF3FF000FFFFFFFEE
:102F0000FFFFFFFCFFF3FC0003FCF3F3FFF3F3FF11
:102F1000FC0FFFFFFFFFFFFFFF000FFCFFF3F0FFC1
:102F2000F3F0FFF3F3000FFFFFFFFCFFF3FC0003E0
:102F3000FCF3F3FFF3F3FFC3F3FF3C0FFCFFFFFFD2
:102F4000FFFFFC3F0FFF3CF3FCFCF3FCFCCFFF0357
:102F5000C3FFFFFFFFFFC3FFFFF3FCFFF3FC000312
:102F6000FCFFF3FFFFF3FFFFC3FFFFF3FF0003FCD2
:102F7000FFF3FCFFFFFCFFF3FF0003FFFFF3FFFF86
:102F8000F3FFFF03FFC0F3FC3FFFFFC0F3FFFF03AE
:102F9000FFFFF3FFFFF3FF0003FCFFF3FF00FFFC65
:102FA000FFF3FF0003FFFFF3FCFFF3FC3FC3FFCF82
:102FB0003FFFF0FFFFCF3FFC3FC3FCFFF3FFFFF3FA
:102FC000FFFFC3FCFC33FC03FFFCFC33FFFFC3FF2C
:102FD000FFF3FFFFFFFC3FC3FCCFF3FCF0F3FCFF6C
:102FE00033FC3FC3FFFFFFFFFFFFFFFFFFC00003F6
:102FF000CFFFF3CFFFF3FFFFFFFFFFFFFFFFFFFF59
:10300000FFF3FFFC0FFFC3FFF03FFFFFFFFFFFFFDA
:10301000FFFFFFFFFFFFFFCFFFF3CFFFF3C0000372
:10302000FFFFFFFFFFFFFFFFFFFFFCFFFFFF3FFF73
:10303000FFC3FFFF3FFFFCFFFFFFFF3FFFFF3FFF1F
:10304000FF3FFFFF3FFFFF3FFFFF3FFFFF3FFFFF50
:10305000FFFFFFFFFFFFFFFFFFFFFFF3FFFFCFFFBC
:10306000FFFFFFFFFFFFFFFFFF0CFFFCF33FFCF341
:103070003FFCF33FFC00FFFCFFFFFCFFF3FC000301
:10308000FCFCFFFCFF3FFCFF3FFF00FFFFFFFFFFDB
:10309000FFFFFF00FFFCFF3FFCFF3FFCFF3FFF3C4B
:1030A0003FFFFFFFFFFFFFFF00FFFCFF3FFCFF3F75
:1030B000FCFCF3FC0003FCFFFFFFFFFFFF00FFFC35
:1030C000F33FFCF33FFCF33FFCF0FFFFFFFFFFFF8C
:1030D000FFFCFF3FFC000FFCFF33FCFF33FCFF3322
:1030E000FFFFFFFFFFFFFF00FFCCFF3FCCFF3FCC08
:1030F000FCFFF0003FFFFF3FFCFFF3FC0003FCFC84
:10310000FFFFFF3FFCFF3FFC00FFFCFFFFFFFFFF57
:10311000FCFF3FFCFF3FFC0033FCFFFFFCFFFFFF19
:10312000FFFFFFFFFFCFFF3FCFFF3FCFFF33F00099
:103130003FFFFFFFFFFFFFFCFFF3FC0003FFF3FF78
:10314000FCC33FFC3C3FFCFF3FFFFFFFFFFFFFFCDA
:10315000FFFFFCFFF3FC0003FCFFFFFCFFFFFFFF92
:10316000FFFCFF3FFC003FFCFF3FFC00FFFCFF3F7C
:10317000FC00FFFCFFFFFCFF3FFC003FFCFCFFFFEF
:10318000FF3FFCFF3FFC00FFFCFFFFFFFFFFFF00D6
:10319000FFFCFF3FFCFF3FFCFF3FFF00FFFFFFFF87
:1031A000CFFF3FC0003FCCFCFFFCFF3FFCFF3FFFD9
:1031B00000FFFFFFFFFFFFFFFF00FFFCFF3FFCFFE3
:1031C0003FCCFCFFC0003FCFFF3FFFFFFFFCFF3FB6
:1031D000FC003FFCFCFFFCFF3FFCFF3FFFFFFFFF4D
:1031E000FFFFFC3CFFFCF33FFCF33FFCF33FFF0C15
:1031F0003FFFFFFFFFFFFFFFFF3FFF000FFCFF3F11
:10320000FCFF3FFCFF3FFF3FFFFFFF3FFF003FFC96
:10321000FFFFFCFFFFFF3F3FFC003FFCFFFFFFFF06
:103220003FFFF03FFF0F3FFCFFFFFF0F3FFFF03F6F
:10323000FFFF3FFFFF3FFF003FFCFF3FFF03FFFC9F
:10324000FF3FFF003FFFFF3FFCFF3FFC3C3FFFC352
:10325000FFFFC3FFFC3C3FFCFF3FFFFFFFFFFF3FC3
:10326000CFFC3FCFC33FC03FFFCF0F3FFFF03FFF3B
:10327000FF3FFFFFFFFC3C3FFCCF3FFCF33FFCFC6C
:103280003FFC3F3FFFFFFFFFFFFFFFFFFFFFCFFFC1
:10329000F0300FCFFFF3FFFFFFFFFFFFFFFFFFFF48
:1032A000FFFFFFFFFFF00003FFFFFFFFFFFFFFFF38
:1032B000FFFFFFFFFFFFFFCFFFF3F0300FFFCFFF58
:1032C000FFFFFFFFFFFFFFFFFFFFCFFFFFF3FFFF4A
:1032D000CFFFFFCFFFFFF3FFFFFFFF00FFFFFFFF69
:1032E000FFFFFFFFFFFFFFFFFFFFF300FFFFFFFFF9
:1032F000FFFFFFF0FFFFFFF0FFFFCCCFF003CCCCD0
:10330000F003FCCCFFFFF3CFC300FC33FFFFFFFF54
:10331000FF3FFF30F0CFFFCFFFFFF03FF303F0F3AD
:10332000F3F3FFFFFFFFFFC0FFFFFFFFFFFFFFFF04
:10333000F003CFFCFFFFFFFFCFFCF003FFFFFFFF19
:10334000FFFFFF33FFC0FF33FFFFFF3FFF3FF003EF
:10335000FF3FFF3FFFFFFFFFC3FFFCFFFFFFFFFF3C
:10336000FF3FFF3FFF3FFFFFFFFFFFFFF3FFFFFFB9
:10337000FFFFCFFFF0FFFF03FFFCFFFFFFFFFC039A
:10338000F3FCFC03FFFFF3FFF3FCF000F3FFF3FF9C
:10339000FFFFF0F3F33CF3C3FFFFFFFFF3F3F33C56
:1033A000FCC3FFFFFFFFFF0FF333F000F33FFFFF0E
:1033B000FCC0F3CCFC3CFFFFFFFFFC03F3CCFC3C68
:1033C000FFFFFFFFFFF0F03CFFC0FFFFFFFFFC33FC
:1033D000F3CCFC33FFFFFFFFF3C3F33CFC03FFFF21
:1033E000FFFFFFFFF3CFFFFFFFFFFFFFFFFFF3FF35
:1033F000FCCFFFFFFF3FFF3FFCCFF3F3FFFFFFFFDB
:10340000FF33FF33FF33FFFFFFFFF3F3FCCFFF3F3B
:10341000FF3FFFFFFFF3F33CFFC3FFFFFFFFF0039E
:10342000CFFCCF3CCC03F0FFF30CFF30F30FF0FFE9
:10343000F3FCF000F3CCF3CCFC33FFFFFC00F3FC17
:10344000F3F0FFFFF3FCF000F3FCF3FCFC03F3FCF0
:10345000F000F3CCF3FCF0F0F3FCF000F3CCFFFC55
:10346000FFF0FFFFFC03F3FCF03CFF3FF3FCF00038
:10347000F3CCFFCFF000FFFFF3FCF000F3FCFFFF05
:10348000FFFFFC3FF3FCFC00FFFCF3FCF000FF0F30
:10349000F030F3FCF3FCF000F3FCF3FFF0FFF0007E
:1034A000F3C0FF3FF3C0F000F3FCF000F3C3FC3CBB
:1034B000F000FFFFFC03F3FCF3FCFC03F3FCF00063
:1034C000F33CFF3CFFC3FFFFFC03F3FCF0FCF00008
:1034D000F3FCF000F33CFF3CF0C3FFFFF3F0F3CC50
:1034E000F030FFFFFFF0F3FCF000F3FCFFF0FFFC17
:1034F000FC00F3FFF3FCFC00FFF0FC0CF3FFF03CDE
:10350000FFC0FC00F3FCFC0FF3FCFC00F3FCF0F04C
:10351000FF0FF0F0F3FCFFF0F3CCF03FF3CCFFF043
:10352000FFFFF0F0F33CF3CCF0F0FFFFFFFFC00033
:10353000CFFCFFFFFFFCFFC3F03FCFFFFFFFFFFF0C
:10354000CFFCC000FFFFFFFFFFFFFFCFFFF0FFCF6B
:10355000FFFF3FFF3FFF3FFF3FFFFFFFFFFFFFFF7B
:10356000FFFCFFF3FFFFFFFFF0FFF0CFF00FF3FFD3
:10357000F3FCF000F3CFF3CFFC3FFFFFF00FF3CFEE
:10358000F3CFFFFFFFFFFC3FF3CFF3CCF000FFFFD3
:10359000FC0FF30FF30FFFFFFFFFF3CFF003F3CCAC
:1035A000FFFFFFFFFC3F33CF33CFC00FF3FCF00032
:1035B000F3CFFFCFF03FFFFFF3CFF00CF3FFFFFFA0
:1035C000FFFF3FCF3FCC000FFFFFF3FCF000FF3FBA
:1035D000F00FF3CFFFFFF3FCF000F3FFFFFFF00F5E
:1035E000FFCFF03FFFCFF03FF3CFF00FFFCFFFCF84
:1035F000F03FFFFFFC3FF3CFF3CFFC3F3FCF000F87
:1036000033CFF3CFFC3FFFFFFC3FF3CF333F000F3F
:10361000FFFFF3CFF00FF3CFFFCFFFFFF3FFF30F69
:10362000FCCFFFFFFFCFFC03F3CFF3CFFCFFFFCFB7
:10363000FC0FF3FFF3CFF00FFFCFFF0FF0FFF0FF12
:10364000FF0FFC0FF3CFFC3FF3CFFC0FFFFFF3CFD7
:10365000FC3FFC3FF3CFFFCF3C0F03FFFC0FFFCF3E
:10366000FFFFF3CFF0CFF30FF3CFFFFFFF3FF003E8
:10367000CFFCFFFFFFFFFFFFC000FFFFFFFFFFFFCB
:10368000CFFCF003FF3FFFFFFFFFFCFFFF3FFCFF0E
:10369000FF3F0000F8B50400B74FB84D2078C007D1
:1036A00016D58026B602E8680C210140082907D00B
:1036B000E8680C2101400C295CD1E868C00359D5A9
:1036C0002868064004D0606880214902884235D1CC
:1036D0002078800719D56868A9490140206900024F
:1036E00008436860E8680C210140042907D0E868B5
:1036F0000C2101400C2964D1E868C00361D428681A
:10370000400702D5E068012818D12078C00617D5F7
:1037100068689C490140606A084368606868000204
:10372000000A216A090601436960E8680C2101402A
:103730006BD12868800503D5E069012800D0E7E057
:103740002078000700D4E5E060690028286D00D1EA
:103750007EE001210143296500F0E4FA0600286DAE
:10376000800700D5D6E000F0DDFA801B6428F6D98A
:103770000320F2BD2868B5490140296000F0D2FA63
:1037800000902868304000D1E3E000F0CBFA0099C7
:10379000401AB842F5D3EBE700F0C4FA0099401A9A
:1037A000B84200D2E3E0E3E700F0BCFA00902868FA
:1037B00030408DD000F0B6FA0099401AB842F6D3E6
:1037C000D6E7E0680921C94300280FD02A681140D4
:1037D0000843286000F0A6FA06002868400794D441
:1037E00000F0A0FA801B6428F7D9C1E728680140DF
:1037F000296000F097FA06002868400785D500F098
:1038000091FA801B6428F7D9B2E7E069002828689C
:103810000ED0A90D0143296000F084FA0600286843
:1038200080058DD400F07EFA801B6428F7D99FE7CD
:1038300087490140296000F075FA06002868800574
:1038400000D47DE700F06EFA801B6428F6D98FE77C
:1038500001218843286500F065FA0600286D80077D
:1038600058D500F05FFA801B6428F7D980E7012261
:103870009143A9600168774A0A40026000F052FA59
:103880000600A868800747D500F04CFA801B642822
:10389000F7D96DE700F046FA801B642800D284E077
:1038A00066E700F03FFA801BB84200D289E05FE78C
:1038B00000F038FA801BB84200D294E058E700F0DC
:1038C00031FA0600286D800560D500F02BFA801BC8
:1038D000B842F7D34CE700F025FA801B642800D8E3
:1038E00097E045E700F01EFA001B642800D8A6E028
:1038F0003EE70140296000F015FA040028688001C5
:1039000000D4A0E000F00EFA001B6428F6D92FE7DF
:103910000120F2BD2078800636D54F48A1690029E4
:10392000A968A4D001220A43AA60696B01220A4354
:103930006A6301686A0C0A43026000F0F3F906004A
:10394000A868800720D400F0EDF9801B6428F7D91F
:103950000EE728683D4901406068084328606068B8
:103960007108884200D01FE700F0DCF90090286859
:10397000304000D0ACE60FE7891300000010024091
:10398000FFE0FFFFFF1FFFFF207840072FD5A86B48
:10399000802149050143A963AE480068A90D014390
:1039A000AC48016000F0BEF90600AA480068C005F6
:1039B00000D46FE7286DA8490140296500F0B2F9ED
:1039C0000600286D800500D56BE7286DA2490140EF
:1039D000A06808432865A068A90D884200D06EE75A
:1039E00000F0A0F90600286D800500D460E7A06A09
:1039F000002828D0E9680C220A400C2A88D0974970
:103A00000228286800D074E70140296000F08AF994
:103A100006002868800100D55DE7E868904901400C
:103A2000206B0843616B0143E06A0843E860286843
:103A3000802149040143296000F074F904002868DA
:103A4000800100D44EE70020F2BD0000FFFFFAFF26
:103A5000FFFEFFFFFEDFFFFF20000140F2B582B056
:103A600004000C277F4D0320C043974E02219E4A3D
:103A70001368DA07D20F029B9A425ED29A4A126802
:103A800001239A43029B1343974A13601368DA0792
:103A9000D20F029B9A421CD12268114005D0F168D6
:103AA000F0229143A2680A43F2602178C90700D44A
:103AB00092E06168022902D13268920308E000298D
:103AC00002D13268920503E00329326802D19201E3
:103AD00002D4B2E05207FCD5F26810400143F16015
:103AE00000F020F9616802290CD10090F06838409C
:103AF000082871D000F016F90099401AA842F5D3B1
:103B00000320FEBD03290BD10090F06838400C283B
:103B100062D000F007F90099401AA842F5D3EFE708
:103B20000029009070D1F068384055D000F0FAF8C4
:103B30000099401AA842F6D3E2E72268114005D066
:103B4000F168F0229143A2680A43F2602178C90724
:103B500065D56168022902D13268920308E0002924
:103B600002D13268920503E00329326802D1920142
:103B700002D462E0520760D5F26810400143F16060
:103B800000F0D0F8616802290BD10090F06838404D
:103B9000082844D000F0C6F80099401AA842F5D38E
:103BA000AEE703290BD10090F06838400C2836D0DE
:103BB00000F0B8F80099401AA842F5D3A0E7002910
:103BC00000903CD1F068384029D000F0ABF8009963
:103BD000401AA842F6D393E72078400705D5F0684D
:103BE00042490140E0680843F0602078000706D5AC
:103BF000F0683F4901402069C0000843F06003209D
:103C000000F096F80020FEBDF06838400428E3D0AC
:103C100000F088F80099401AA842F5D370E73248BE
:103C2000006801218843029901432F480160006820
:103C3000C107C90F02988142CED00120FEBDF068B5
:103C400038400428EBD000F06DF80099401AA842E3
:103C5000F5D355E700700040FFFAFFFFFFFFFFFEBE
:103C6000FFFF02FF8913000030B5174C616822483E
:103C70004300E2680C251540042D04D0082D22D005
:103C80000C2D07D019E02068C00601D5980830BD7A
:103C9000180030BDE268E168184D9202120FAA5C6C
:103CA0000902890F491CE468E40301D45A4300E087
:103CB0004243100000F04EF830BD00BF12A00904CE
:103CC000490F8900405830BD0010024080B5FFF711
:103CD000CBFF084909680A4A0906090F515CC84028
:103CE0000849086002BD000000200240FFF8FFFF05
:103CF000FFC7FFFF0C10024000127A0048000020AE
:103D0000540000208000002000FA000000F40100B0
:103D100000E8030000D0070040420F0080841E002E
:103D200000093D0001480068704700BFD80000202E
:103D300010B50400FFF7CAFFFA21890000F00AF865
:103D400000F042F8002221000020C04300F038F8C3
:103D5000002010BD094214D088420FD30122030C69
:103D600001D100041204002300185B418B4200D3F0
:103D70005B1A5241F8D3190010007047010000206F
:103D8000704708B500F03AF808BDFEE718B5C20064
:103D900018231340FF249C40E2438907090E9940F1
:103DA000030004D512481B071B0F083B00E0114815
:103DB0009B089B00C01803681A401143016011BDA5
:103DC00080B5FFF7E3FF01BD10B5401E8021490417
:103DD000884201D3012010BD074C60600321002000
:103DE000C043FFF7D3FF0020A0600721216010BD72
:103DF0001CED00E000E400E010E000E07047FEE7AA
:103E000010B5040001D1012010BD5120205C002814
:103E100002D1200000F06AF9200051300221017027
:103E200021680A887D4B13400B806168A2680A43B1
:103E3000E168114322690A4361691143A269802341
:103E40009B001A400A43E1691143226A0A43A16AAE
:103E5000114322681180A169090C04221140626A91
:103E60000A4321688A80E16A2268118221688A8B6C
:103E70006B4B13408B8300214170012101700020A6
:103E800010BD10B5002801D1012010BD0400503430
:103E90000221617001680A88604B13400B8000F0BA
:103EA00026F90020A0706070207010BDF0B583B0BE
:103EB000060050367478012C00D096E0002901D01D
:103EC000140001D10120FEBD5024045D012C00D15D
:103ED0008BE001243470122474700024B4700163E8
:103EE0008286C286C46484648487C487816A80228F
:103EF000920191420AD101680A884A4D15400D800D
:103F000001680A888025AD0115430D8081688022F3
:103F10001202914205D101680A888025ED011543FE
:103F20000D80016840220D88154202D10D882A4378
:103F30000A8080277F01C1680029016B1FD14A1CBC
:103F40000263097802689181C18E491EC18605000D
:103F5000009310E0009B00220221280000F068F886
:103F6000002859D1286B411C296300782968888171
:103F7000E88E401EE886E88E0028EBD137E00988FD
:103F800002689181016B891C0163C18E491EC18643
:103F900005000093E88E002829D0009B0022022112
:103FA000280000F045F8002836D1286B00882968E1
:103FB0008881286B801C2863E88E401EE886E9E72C
:103FC000009B01228021019800F032F8002820D1C6
:103FD00001988068002803D10198006881890089D0
:103FE0000120707034700020FEBD0220FEBD0195DE
:103FF000A86A7900884203D1286801880F430780A6
:104000002025009B00220221019800F011F80028D1
:10401000D6D0B0780543B5700320FEBDBFFF0000C9
:10402000FFF70000FFDF00005121405C70470000F7
:10403000FFB581B0FFF776FE024F8024A401294D21
:1040400002E000BFFFDF0000274E6946097B002920
:1040500000903BD1019800680089029901400298C4
:1040600081423BD004980021C9438842F2D0FFF737
:1040700059FE0099401A04998142EBD20BE0049852
:104080000021C943884221D0FFF74CFE0099401A15
:10409000049981421AD2019801688A8816408E805C
:1040A00001680A8815400D80816AA14207D1016824
:1040B0000A8817400F8001680A8814430C8050302A
:1040C0000121417000210170032008E0019800687F
:1040D00000890299014002988142D0D0002005B0A9
:1040E000F0BD0000BFFF00001FFF000070477047D9
:1040F00038B5002400F0B7F9102000F01DFA0020B8
:1041000000F008FA112000F017FA032000F002FA7C
:10411000442000F011FA002000F0FCF9112000F01A
:10412000F9F9452000F008FA002000F0F3F9AB207F
:1041300000F0F0F94E2000F0FFF9002000F0EAF95D
:104140004F2000F0F9F9002000F0E4F9F02000F031
:10415000F3F91F2000F0DEF9212000F0EDF9032033
:1041600000F0D8F92C2000F0E7F9A02000F0D2F9F7
:104170003C2000F0E1F9642000F0CCF9322000F09E
:10418000DBF900BF78A5285D00F0C4F9641C5A2C47
:10419000F9DB31BD10B50400242027E0F8B5040098
:1041A0000D0017001E00442000F0C6F9280000F0A2
:1041B000B1F9300000F0AEF9452000F0BDF9200063
:1041C00000F0A8F9380000F0A5F94E2000F0B4F98D
:1041D000280000F09FF94F2000F0AEF9200000F019
:1041E00099F9F1BDAC2070471220704700F0A4F996
:1041F000200000F08FF910BD80B5222000F09CF95E
:10420000C42004E080B5222000F096F9032000F0DD
:1042100081F9202000F090F901BDFEB51500684637
:1042200000210160242000F087F96846A9088180F8
:104230006C46680736D1002706E0FF2000F06AF9D7
:10424000FF2000F067F97F1C68460089694689886D
:104250004843C10F08184010874245D20898C55DF1
:10426000002DEAD00226002021180A78EB0702D59B
:10427000FC23134001E0032313430B706D10401C1B
:104280000428F1D320788001617809010143A078E6
:1042900082000A43E0781043C0B200F03BF9761E7A
:1042A000D1D0E0E70027481C019015E0FF2011E085
:1042B000032313430B706D10401C04284AD320784D
:1042C0008001617809010143A07882000A43E07807
:1042D0001043C0B200F01EF96846018901984843B6
:1042E000C10F0818401087423BD20898C55D01995C
:1042F0007F1C3800CA0F51184910FFF72BFD002909
:1043000025D0002D1FD00226002021180A78EB07A7
:1043100002D5FC23134001E0032313430B706D10FF
:10432000401C0428F1D32078800161780901014301
:10433000A07882000A43E0781043C0B200F0EAF8A7
:10434000761EC9D0E0E7FF2000F0E4F8AEE7F02DDC
:10435000ACD0002021180A78EB07A9D5FC23134024
:10436000A8E7F7BD0000000082000000AA000000DE
:10437000AAAA0000AAAAAA0055AAAA0055555555EE
:10438000AAAAAAAA55555555AAAAAAAA1515151535
:104390000505050501010101000000000000000005
:1043A000000000000000000000000000000000000D
:1043B00000000000000000004145F1FF5F550100D2
:1043C00000000000F0B585B0694C2000FFF72CFE1E
:1043D000002832D1674820608220400060600025BC
:1043E000A5601020E061E56001206061022727617F
:1043F00025624102A161A5620721E16265625B4E0F
:1044000031683943316008210091019702900320FF
:10441000039004956946584800F0B4F820200090B5
:10442000049502976946544800F0ACF8B068B10CA6
:104430000143B1602000FFF7E3FC05B0F0BD01B51A
:1044400080235B01012269464948FFF72FFD0028C0
:1044500001D000F001F801BD80B54548FFF711FD1E
:10446000FFF7B0FF01BDF0B585B001203F490A68F4
:1044700002430A6002240A6822430A600A6822434F
:104480000A600A6802430A600A6822430A60C1039C
:10449000009101900025029503200390A027FF05BD
:1044A0006946380000F06EF8A0020090324E69466E
:1044B000300000F067F8042000906946300000F0FA
:1044C00061F8600200906946300000F05BF8E0019E
:1044D0000090019502946946380000F053F80022DC
:1044E0006102300000F01AF90022A103380000F048
:1044F00015F90122D103380000F010F9012204213E
:10450000300000F00BF90A2000F01CF9FFF75AFF09
:1045100005B0F0BD70B50600A025ED05802424028D
:1045200000222100280000F0F9F80122D1021248EF
:1045300000F0F4F8F0B210E070B50600A025ED052B
:104540008024240200222100280000F0E7F8002245
:104550002109094800F0E2F83000FFF770FF01225E
:104560002100280000F0DAF870BD00002C10024095
:1045700084000020003001400004005080B500F0AD
:10458000E1F801BDFEB503000A0001201900002377
:1045900001249C400294254614682C40AC4200D073
:1045A000B0E06D469E002E705568022D01D0122D90
:1045B0001AD1DD08AD004D192E6A01966E46377886
:1045C0001C263E406F467E70019EB4460F276E4605
:1045D0007678B7406646BE43B44617696E4676782D
:1045E000B740664637432F625E000327B740FD435E
:1045F00001955568012D05D0022D03D0112D01D054
:10460000122D0FD18F68019D3D40D768B7402F43D1
:104610008F608D88029FBD4357683F0907409F40C8
:104620002F438F800F68019D3D401779BF07BF0F53
:10463000B7402F430F60CF68019D3D409768BC464F
:1046400037006646BE402E43CE605568ED0059D512
:10465000354D2D680543344E3560344D9E08B60007
:10466000AD1901952E680C256F46BC463F783D403C
:1046700067463D700F25ED433F78BD403540A0268D
:10468000F605B14201D1002614E0294EB14201D114
:1046900001260FE0274EB14201D102260AE0264E44
:1046A000B14201D1032605E0244EB14201D10426D6
:1046B00000E005266F463F78BE402E43019D2E60E8
:1046C0001F4D2E68E5432E405768FF0300D5264353
:1046D0001B4F3E607E682E405768BF0300D52643BF
:1046E000174F7E60BE682E405768FF0200D52643F4
:1046F000134FBE60FE6835405668B60201D52C43A4
:104700002500FD605B1C0F2B00D841E7F7BD008A38
:104710000140080000D00120C0B27047002A01D03B
:1047200081617047018570473410024008000140E4
:104730000004005000080050000C0050001C005005
:104740000004014011B581B0FFF7ECFA0400FFF757
:10475000E9FA001B01998842F9D313BD10B5604CEA
:104760002000083020605F48606000688047FF20BC
:1047700000F00EF8200010302060002010BD80B541
:10478000574840684069804702BD554908607047F6
:1047900070B50400524D1123AB22002100206E6839
:1047A000B668B047504EE0B2696849688847761EDF
:1047B000F9D170BDF0B583B0494E3468A388E7885D
:1047C0002468203AD2B27A435A43A51800240193B0
:1047D0000097464ACB199B189BB2019FC719BA187C
:1047E00092B27768BF68B8470098019948432F0094
:1047F000050004E0385D716849688847641CAC4274
:10480000F8D3F7BDF0B583B01500002400E0641CB8
:1048100017007A1C3F78002FF9D101946A46137073
:104820000F000400FFF7ABFF2D4909686A468B882B
:1048300053808988FFF78EFA69460978012902D0EA
:1048400002290CD012E00199401A69464988484370
:104850004008201869460F800024070014E00199E1
:10486000401A694649884843001BF3E72000F1E7F6
:104870002A7868460188B8B2FFF79CFF184800689C
:1048800080883F186D1C641C2E78002E00D00126F5
:10489000FFF775FF124909688988A4B222004A43CC
:1048A000801A80B288428041C043C00F0642DFD1E7
:1048B000F7BD80B50A484068C0688047802149003C
:1048C000A020C005FFF723FF0028F7D10122042113
:1048D0000748FFF723FF0A20FFF750FE01BD000045
:1048E0002800002000000020180C0000FFFF00003E
:1048F00000040050F0B593B000F098F83B48016810
:10490000802252050A43026039480168394A0A4048
:10491000810C1143016002200590002406940125BA
:1049200008950F95109440041190000112901020EA
:10493000099005A8FEF7AEFE0F20009001950294A5
:104940000394049400216846FFF788F8FFF706FFF8
:1049500030A7294E2DA5294CFF20FFF719FFFFF79F
:10496000A8FF2000FFF7EEFEFF20FFF711FF06A8CB
:104970002900062200F06EF83000FFF706FF03233F
:1049800006AA00210020FFF73DFF04A839000722F6
:1049900000F060F81A48FFF7F8FE032304AA02218A
:1049A0001E20FFF72FFF02A81CA1072200F052F8DB
:1049B0001448FFF7EAFE032302AA04215A20FFF756
:1049C00021FF684617A1072200F044F80E48FFF7C0
:1049D000DCFE03236A4606210020FFF713FFFFF7E2
:1049E00068FF2000FFF7AEFEB6E700003810024077
:1049F00000700040FFE7FFFF40000020B80B000000
:104A0000380000203000002020000020466F6E7427
:104A100038000000466F6E7431320000466F6E74CD
:104A200031360000466F6E743230000080B50848A1
:104A3000016840220A430260016802220A430260C0
:104A40000320FFF775F900F033F8002002BD0000E5
:104A500000200240124207D08B0706D00B78491C79
:104A60000370401C521EF7D87047830706D00B789E
:104A7000491C0370401C521EF9D1704770B4103AA3
:104A800003D378C9103A78C0FBD2530701D318C9B1
:104A900018C001D508C908C0D20704D30B88038009
:104AA000891C801C002A01D50B78037070BC7047EC
:104AB0007047FEE70F480168820D0A430260C16833
:104AC0000D4A0A40C26001680C4A0A4002608168CF
:104AD0000122914381600168094A0A400260C1686D
:104AE000084A0A40C2600021016180200005064991
:104AF00008607047001002400C40FF88F6FFF6FE89
:104B0000FFFFFBFFFFFF02FF08ED00E070B40100B4
:104B10000123002413E00A68091D1A4202D04D4601
:104B20006D1E52191460121D001F0428FAD21500C0
:104B3000860701D51480AD1C184000D02C70086881
:104B4000091D0028E7D1080070BC704730B5016826
:104B50004118446862088A188368E4070DD54C46FA
:104B60001B190AE00C7864B2491C0D78491C1D70B1
:104B70005B1C002C05D5641CF9D19142F2D10C309C
:104B800030BD641EF1D5F8E710B5074979441831F6
:104B9000064C7C44163404E0081D0A6889188847CE
:104BA0000100A142F8D110BD08000000240000005F
:104BB0005DFFFFFF5800000084000020000000009F
:104BC0008DFFFFFFBE000000EC0000000000002091
:104BD00000F00BF8002801D0FFF7D6FF002000BF3F
:104BE00000BFFFF787FE00F002F80120704780B594
:104BF00000F002F801BDFEE70746384600F002F873
:104C0000FBE7FEE780B500BF00BF024A1100182095
:104C1000ABBEFBE7260002007047FEE77047704717
:104C2000704780B500F002F801BDFEE70248016858
:104C3000491C0160704700BFD80000200148804730
:104C400001480047B54A00084D4C000800BF00BFAE
:104C500000BF00BFFFF7BCFFFEE7FEE7FEE7FEE791
:104C6000FEE7FEE7FEE7FEE7FEE7FEE7FEE7FEE71C
:104C7000FEE7FEE7FEE7FEE7FEE7FEE7FEE7FEE70C
:104C8000FEE726F1400008954100089D410008F923
:104C900041000805420008E5410008E94100081B01
:104CA000420008C00000080E0005F70020BC1A00F2
:104CB000080B000400102B000807000300DC320082
:104CC0000805000200030406080C10182030F90043
:104CD0000B010203040102030406070809F800108F
:104CE0000102030406070809030406080C10182033
:084CF00030FD000380841E006A
:0400000508004C4D56
:00000001FF
